{"abi":[{"type":"constructor","inputs":[{"name":"_asset","type":"address","internalType":"contract IERC20Min"}],"stateMutability":"nonpayable"},{"type":"function","name":"asset","inputs":[],"outputs":[{"name":"","type":"address","internalType":"contract IERC20Min"}],"stateMutability":"view"},{"type":"function","name":"balanceOf","inputs":[{"name":"","type":"address","internalType":"address"}],"outputs":[{"name":"","type":"uint256","internalType":"uint256"}],"stateMutability":"view"},{"type":"function","name":"deposit","inputs":[{"name":"assets","type":"uint256","internalType":"uint256"},{"name":"receiver","type":"address","internalType":"address"}],"outputs":[{"name":"shares","type":"uint256","internalType":"uint256"}],"stateMutability":"nonpayable"},{"type":"function","name":"redeem","inputs":[{"name":"shares","type":"uint256","internalType":"uint256"},{"name":"receiver","type":"address","internalType":"address"}],"outputs":[{"name":"assets","type":"uint256","internalType":"uint256"}],"stateMutability":"nonpayable"},{"type":"function","name":"totalAssets","inputs":[],"outputs":[{"name":"","type":"uint256","internalType":"uint256"}],"stateMutability":"view"},{"type":"function","name":"totalSupply","inputs":[],"outputs":[{"name":"","type":"uint256","internalType":"uint256"}],"stateMutability":"view"}],"bytecode":{"object":"0x60a060405234801561001057600080fd5b5060405161066d38038061066d83398101604081905261002f91610040565b6001600160a01b0316608052610070565b60006020828403121561005257600080fd5b81516001600160a01b038116811461006957600080fd5b9392505050565b6080516105ce61009f60003960008181609001528181610128015281816101f601526103d301526105ce6000f3fe608060405234801561001057600080fd5b50600436106100625760003560e01c806301e1d1141461006757806318160ddd1461008257806338d52e0f1461008b5780636e553f65146100ca57806370a08231146100dd5780637bde82f2146100fd575b600080fd5b61006f610110565b6040519081526020015b60405180910390f35b61006f60005481565b6100b27f000000000000000000000000000000000000000000000000000000000000000081565b6040516001600160a01b039091168152602001610079565b61006f6100d836600461049a565b6101a0565b61006f6100eb3660046104c6565b60016020526000908152604090205481565b61006f61010b36600461049a565b6102f8565b6040516370a0823160e01b81523060048201526000907f00000000000000000000000000000000000000000000000000000000000000006001600160a01b0316906370a0823190602401602060405180830381865afa158015610177573d6000803e3d6000fd5b505050506040513d601f19601f8201168201806040525081019061019b91906104e8565b905090565b600080546000036101b25750816101d4565b6101ba610110565b6000546101c79085610517565b6101d1919061052e565b90505b6040516323b872dd60e01b8152336004820152306024820152604481018490527f00000000000000000000000000000000000000000000000000000000000000006001600160a01b0316906323b872dd906064016020604051808303816000875af1158015610247573d6000803e3d6000fd5b505050506040513d601f19601f8201168201806040525081019061026b9190610550565b6102ae5760405162461bcd60e51b815260206004820152600f60248201526e1d1c985b9cd9995c8819985a5b1959608a1b60448201526064015b60405180910390fd5b806000808282546102bf9190610572565b90915550506001600160a01b038216600090815260016020526040812080548392906102ec908490610572565b90915550505b92915050565b3360009081526001602052604081205483111561034d5760405162461bcd60e51b8152602060048201526013602482015272696e73756666696369656e742073686172657360681b60448201526064016102a5565b600054610358610110565b6103629085610517565b61036c919061052e565b33600090815260016020526040812080549293508592909190610390908490610585565b92505081905550826000808282546103a89190610585565b909155505060405163a9059cbb60e01b81526001600160a01b038381166004830152602482018390527f0000000000000000000000000000000000000000000000000000000000000000169063a9059cbb906044016020604051808303816000875af115801561041c573d6000803e3d6000fd5b505050506040513d601f19601f820116820180604052508101906104409190610550565b6102f25760405162461bcd60e51b815260206004820152600f60248201526e1d1c985b9cd9995c8819985a5b1959608a1b60448201526064016102a5565b80356001600160a01b038116811461049557600080fd5b919050565b600080604083850312156104ad57600080fd5b823591506104bd6020840161047e565b90509250929050565b6000602082840312156104d857600080fd5b6104e18261047e565b9392505050565b6000602082840312156104fa57600080fd5b5051919050565b634e487b7160e01b600052601160045260246000fd5b80820281158282048414176102f2576102f2610501565b60008261054b57634e487b7160e01b600052601260045260246000fd5b500490565b60006020828403121561056257600080fd5b815180151581146104e157600080fd5b808201808211156102f2576102f2610501565b818103818111156102f2576102f261050156fea2646970667358221220f846fa5f6a362726db9bf8c9206226cf5ff40b80b29edace5ecdfd68a319417d64736f6c63430008140033","linkReferences":{}},"methodIdentifiers":{"asset()":"38d52e0f","balanceOf(address)":"70a08231","deposit(uint256,address)":"6e553f65","redeem(uint256,address)":"7bde82f2","totalAssets()":"01e1d114","totalSupply()":"18160ddd"},"id":0}