{"abi":[{"type":"constructor","inputs":[{"name":"_asset","type":"address","internalType":"contract IERC20Min"}],"stateMutability":"nonpayable"},{"type":"function","name":"asset","inputs":[],"outputs":[{"name":"","type":"address","internalType":"contract IERC20Min"}],"stateMutability":"view"},{"type":"function","name":"balanceOf","inputs":[{"name":"","type":"address","internalType":"address"}],"outputs":[{"name":"","type":"uint256","internalType":"uint256"}],"stateMutability":"view"},{"type":"function","name":"deposit","inputs":[{"name":"assets","type":"uint256","internalType":"uint256"},{"name":"receiver","type":"address","internalType":"address"},{"name":"minSharesOut","type":"uint256","internalType":"uint256"}],"outputs":[{"name":"shares","type":"uint256","internalType":"uint256"}],"stateMutability":"nonpayable"},{"type":"function","name":"redeem","inputs":[{"name":"shares","type":"uint256","internalType":"uint256"},{"name":"receiver","type":"address","internalType":"address"},{"name":"minAssetsOut","type":"uint256","internalType":"uint256"}],"outputs":[{"name":"assets","type":"uint256","internalType":"uint256"}],"stateMutability":"nonpayable"},{"type":"function","name":"totalAssets","inputs":[],"outputs":[{"name":"","type":"uint256","internalType":"uint256"}],"stateMutability":"view"},{"type":"function","name":"totalSupply","inputs":[],"outputs":[{"name":"","type":"uint256","internalType":"uint256"}],"stateMutability":"view"}],"bytecode":{"object":"0x60a060405234801561001057600080fd5b5060405161076238038061076283398101604081905261002f91610040565b6001600160a01b0316608052610070565b60006020828403121561005257600080fd5b81516001600160a01b038116811461006957600080fd5b9392505050565b6080516106c361009f600039600081816090015281816101280152818161028901526104c001526106c36000f3fe608060405234801561001057600080fd5b50600436106100625760003560e01c806301e1d1141461006757806318160ddd1461008257806338d52e0f1461008b57806370a08231146100ca578063bc157ac1146100ea578063d8780161146100fd575b600080fd5b61006f610110565b6040519081526020015b60405180910390f35b61006f60005481565b6100b27f000000000000000000000000000000000000000000000000000000000000000081565b6040516001600160a01b039091168152602001610079565b61006f6100d8366004610587565b60016020526000908152604090205481565b61006f6100f83660046105a2565b6101a0565b61006f61010b3660046105a2565b610387565b6040516370a0823160e01b81523060048201526000907f00000000000000000000000000000000000000000000000000000000000000006001600160a01b0316906370a0823190602401602060405180830381865afa158015610177573d6000803e3d6000fd5b505050506040513d601f19601f8201168201806040525081019061019b91906105d7565b905090565b600060016101ac610110565b6101b69190610606565b60016000546101c59190610606565b6101cf908661061f565b6101d99190610636565b9050818110156102295760405162461bcd60e51b815260206004820152601660248201527539b634b83830b3b29d1039b430b932b9901e1036b4b760511b60448201526064015b60405180910390fd5b600081116102675760405162461bcd60e51b815260206004820152600b60248201526a7a65726f2073686172657360a81b6044820152606401610220565b6040516323b872dd60e01b8152336004820152306024820152604481018590527f00000000000000000000000000000000000000000000000000000000000000006001600160a01b0316906323b872dd906064016020604051808303816000875af11580156102da573d6000803e3d6000fd5b505050506040513d601f19601f820116820180604052508101906102fe9190610658565b61033c5760405162461bcd60e51b815260206004820152600f60248201526e1d1c985b9cd9995c8819985a5b1959608a1b6044820152606401610220565b8060008082825461034d9190610606565b90915550506001600160a01b0383166000908152600160205260408120805483929061037a908490610606565b90915550505b9392505050565b336000908152600160205260408120548411156103dc5760405162461bcd60e51b8152602060048201526013602482015272696e73756666696369656e742073686172657360681b6044820152606401610220565b60016000546103eb9190610606565b60016103f5610110565b6103ff9190610606565b610409908661061f565b6104139190610636565b90508181101561045e5760405162461bcd60e51b815260206004820152601660248201527539b634b83830b3b29d1030b9b9b2ba39901e1036b4b760511b6044820152606401610220565b336000908152600160205260408120805486929061047d90849061067a565b9250508190555083600080828254610495919061067a565b909155505060405163a9059cbb60e01b81526001600160a01b038481166004830152602482018390527f0000000000000000000000000000000000000000000000000000000000000000169063a9059cbb906044016020604051808303816000875af1158015610509573d6000803e3d6000fd5b505050506040513d601f19601f8201168201806040525081019061052d9190610658565b6103805760405162461bcd60e51b815260206004820152600f60248201526e1d1c985b9cd9995c8819985a5b1959608a1b6044820152606401610220565b80356001600160a01b038116811461058257600080fd5b919050565b60006020828403121561059957600080fd5b6103808261056b565b6000806000606084860312156105b757600080fd5b833592506105c76020850161056b565b9150604084013590509250925092565b6000602082840312156105e957600080fd5b5051919050565b634e487b7160e01b600052601160045260246000fd5b80820180821115610619576106196105f0565b92915050565b8082028115828204841417610619576106196105f0565b60008261065357634e487b7160e01b600052601260045260246000fd5b500490565b60006020828403121561066a57600080fd5b8151801515811461038057600080fd5b81810381811115610619576106196105f056fea2646970667358221220630444bd135a2c40760d584ea5a4551d54c1c2c23ca10fa15ff07e7d70e9228b64736f6c63430008140033","linkReferences":{}},"methodIdentifiers":{"asset()":"38d52e0f","balanceOf(address)":"70a08231","deposit(uint256,address,uint256)":"bc157ac1","redeem(uint256,address,uint256)":"d8780161","totalAssets()":"01e1d114","totalSupply()":"18160ddd"},"id":2}